:020000040800F2
:100000000812002055060008B5060008B5060008CD
:10001000B5060008B5060008B50600080000000097
:10002000000000000000000000000000B50600080D
:10003000B506000800000000B5060008D91D00083C
:10004000B5060008B5060008B5060008B5060008A4
:10005000B5060008B5060008B5060008B506000894
:10006000B5060008B5060008B5060008B506000884
:10007000B5060008B5060008B5060008B506000874
:10008000B5060008B5060008B5060008B506000864
:10009000B5060008B5060008B5060008B506000854
:1000A000B5060008B5060008B5060008B506000844
:1000B000B5060008B5060008B5060008B506000834
:1000C000B5060008B5060008B5060008B506000824
:1000D000B5060008B5060008B5060008B506000814
:1000E000B5060008B5060008B506000800000000C7
:1000F0000000000000000000000000000000000000
:1001000000000000000000005FF808F180B500AFBB
:10011000154A154B1B6843F0010313601249124B3B
:100120005A68124B13404B600F4A0F4B1B6823F069
:10013000847323F4803313600B4A0B4B1B6823F446
:1001400080231360084A084B5B6823F4FE03536066
:10015000054B4FF41F029A6000F00CF8044B4FF06F
:1001600000629A6000BF80BD001002400000FFF8EE
:1001700000ED00E080B500AF00F002F800BF80BDE8
:1001800080B483B000AF00237B6000233B603A4A19
:10019000394B1B6843F480331360374B1B6803F4FF
:1001A00000333B607B6801337B603B68002B03D1ED
:1001B0007B68B3F5A06FF0D12F4B1B6803F40033BD
:1001C000002B02D001233B6001E000233B603B6831
:1001D000012B4BD1294A294B1B6843F010031360B4
:1001E000264A264B1B6823F003031360234A234B44
:1001F0001B6843F0020313601F4A1F4B5B68536088
:100200001D4A1D4B5B6853601B4A1B4B5B6843F4E4
:1002100080635360184A184B5B6823F47C13536067
:10022000154A154B5B6843F4E8135360124A124BAE
:100230001B6843F08073136000BF0F4B1B6803F013
:100240000073002BF9D00C4A0B4B5B6823F00303BF
:100250005360094A084B5B6843F00203536000BFD8
:10026000054B5B6803F00C03082BF9D100BF0C377A
:10027000BD4680BC704700BF001002400020024015
:1002800080B483B000AF4FF4FA537B6002E07B6828
:10029000013B7B607B68002BF9D100BF0C37BD466A
:1002A00080BC704780B500AF134A134B5B6843F0C6
:1002B00011135360104A104B1B6843F088531360AE
:1002C0000D4A0D4B5B6823F0EE1353600A4A0A4B4C
:1002D0001B6823F06E43136000F080F800220121B8
:1002E000012000F049F800F03FF80021062000F05E
:1002F000B5F800BF80BD00BF000C014080B582B0E2
:1003000000AF03460A46FB711346BB71BB79002B55
:1003100008D1FB7963F07F03DBB20021184600F0BF
:100320009DF807E0FB7963F03F03DBB2002118463C
:1003300000F094F800BF0837BD4680BD80B582B09C
:1003400000AF786008E07B681B780121184600F058
:1003500085F87B6801337B607B681B78002BF2D1CA
:1003600000BF0837BD4680BD80B500AF0021012029
:1003700000F074F800BF80BD80B582B000AF0346C6
:10038000FB710B46BB7113467B71FB79002B04D1CB
:100390000021082000F062F81BE0BB79002B0CD193
:1003A0007B79002B04D100210C2000F057F810E0DD
:1003B00000210D2000F052F80BE07B79002B04D1D6
:1003C00000210E2000F04AF803E000210F2000F089
:1003D00045F800BF0837BD4680BD00BF80B500AFFF
:1003E0001D4B4FF04F521A611B4B80221A611A4B62
:1003F0004FF400521A61FFF743FF174B4FF00052C2
:100400001A61FFF73DFF144B4FF04F521A61124B28
:1004100080221A61104B4FF400521A61FFF730FF2F
:100420000D4B4FF000521A61FFF72AFF0A4B4FF0B5
:100430004F521A61084B4FF400721A61064B4FF489
:1004400000521A61FFF71CFF034B4FF000521A6174
:10045000FFF716FF00BF80BD000C014080B582B0E1
:1004600000AF03460A46FB711346BB71364B4FF093
:100470004F521A61BB79002B03D0334B4FF480529B
:100480001A61FB7903F01003002B02D02E4B40229F
:100490001A61FB7903F02003002B02D02A4B802243
:1004A0001A61FB7903F04003002B03D0264B4FF475
:1004B00080721A6197F90730002B03DA224B4FF450
:1004C00000721A61204B4FF400521A61FFF7D8FEF8
:1004D0001D4B4FF000521A61FFF7D2FE1A4B4FF03E
:1004E00070721A61FB7903F00103002B02D0164BE6
:1004F00040221A61FB7903F00203002B02D0124B59
:1005000080221A61FB7903F00403002B03D00E4B09
:100510004FF480721A61FB7903F00803002B03D0BB
:10052000094B4FF400721A61074B4FF400521A61E5
:10053000FFF7A6FE044B4FF000521A61FFF7A0FE32
:1005400000BF0837BD4680BD000C014080B582B0B9
:1005500000AF78607868FFF7F1FE00BF0837BD464E
:1005600080BD00BF80B588B000AF78600123BB615B
:100570000023FB77786800F04DF80346013BBB771A
:10058000BB7F013307F120021344002203F8182C2B
:100590001FE07A681E4BA3FB0213D9080B469B0091
:1005A0000B445B00D31ABB61BB7F5A1EBA77194656
:1005B000BB69DBB23033DAB207F120030B4403F836
:1005C000182C7B68124AA2FB0323DB087B60012303
:1005D000FB777B68002BDCD17B68002B0FD1FB7F86
:1005E000002B0CD1BB7F07F120021344302203F80B
:1005F000182C07F108031846FFF7A0FE04E007F1E6
:1006000008031846FFF79AFE00BF2037BD4680BD9D
:10061000CDCCCCCC80B485B000AF78600023FB7328
:100620007B68002B0AD101230CE07B68084AA2FBFF
:100630000323DB087B60FB7B0133FB737B68002BB0
:10064000F3D1FB7B18461437BD4680BC704700BF12
:10065000CDCCCCCC80B582B000AF114B7B60114BC0
:100660003B6007E03B681A1D3A607A68111D7960AB
:1006700012681A603B680C4A9342F3D30B480C494A
:100680004FF000028842B8BF40F8042BFADBFFF7B6
:100690003DFD00F075F900BF0837BD4680BD00BFC5
:1006A0002F2000080000002014000020140000206B
:1006B000040E002080B582B000AFFFF755FE002386
:1006C0007B6014E000210020FFF718FE0B48FFF7C5
:1006D0003DFF01210020FFF711FE0948FFF736FF1B
:1006E0004FF4FA7001F086FB7B6801337B607B6816
:1006F0004FF6E8529342E5D1FEE700BF2C1E0008FA
:10070000401E000880B489B000AF786039600023D3
:10071000FB6100233B610023BB610023FB600023DE
:100720007B610023BB603B68DB7803F00F03FB6158
:100730003B68DB7803F01003002B05D03B689B7807
:100740001A46FB691343FB613B681B88DBB2002B35
:1007500044D07B681B687B610023BB6138E00122C9
:10076000BB6902FA03F3FB603B681B881A46FB680F
:1007700013403B613A69FB689A4226D1BB699B00F2
:10078000FB600F22FB6802FA03F3BB60BB68DB432C
:100790007A6913407B61FA69FB6802FA03F37A69AC
:1007A00013437B613B68DB78282B05D10122BB69B1
:1007B0009A407B685A6108E03B68DB78482B04D19B
:1007C0000122BB699A407B681A61BB690133BB6136
:1007D000BB69072BC3D97B687A691A603B681B88A1
:1007E000FF2B46D97B685B687B610023BB613AE0E5
:1007F000BB690833012202FA03F3FB603B681B88E4
:100800001A46FB6813403B613A69FB689A4227D15C
:10081000BB699B00FB600F22FB6802FA03F3BB601D
:10082000BB68DB437A6913407B61FA69FB6802FAB3
:1008300003F37A6913437B613B68DB78282B05D18E
:10084000BB69083301229A407B685A613B68DB78B8
:10085000482B05D1BB69083301229A407B681A6195
:10086000BB690133BB61BB69072BC1D97B687A695E
:100870005A6000BF2437BD4680BC704780B485B045
:1008800000AF78600B467B800023FB810023BB60B8
:100890007B689A687B881340BB60BB68002B02D0E2
:1008A0000123FB8101E00023FB81FB8918461437FB
:1008B000BD4680BC704700BF80B483B000AF034624
:1008C000FB71084997F907305B09FA7902F01F02BA
:1008D000012000FA02F241F8232000BF0C37BD4688
:1008E00080BC704700E100E080B483B000AF0346F5
:1008F0003960FB7197F90730002B0BDA0D49FB7952
:1009000003F00F03043B3A68D2B21201D2B20B4497
:100910001A7609E0084997F907303A68D2B212010D
:10092000D2B20B4483F8002300BF0C37BD4680BC15
:10093000704700BF00ED00E000E100E080B582B04C
:1009400000AF78607B68B3F1807F01D3012311E0B1
:100950000A4A7B6823F07F43013B53600F214FF02D
:10096000FF30FFF7C1FF054B00229A60034B0722BF
:100970001A60002318460837BD4680BD10E000E02D
:1009800080B582B000AF0023FB71504B00221A707B
:100990004F4B00221A704F4B12221A704E4B0022FE
:1009A0001A704E4B08221A704D4B4FF496721A80F3
:1009B0004C4B00221A704C4B00221A704B4B0022F9
:1009C0001A7000F0A9F8C82001F014FA00F00AF932
:1009D000FFF768FC00F076F900F01AF9FFF7C4FCA5
:1009E00000210020FFF78AFC4148FFF7AFFD4FF4DC
:1009F000FA6001F0FFF901210020FFF77FFC3D487C
:100A0000FFF7A4FD4FF4FA6001F0F4F9FFF7ACFC36
:100A100000F03CFA03461A46374B1A70364B1B78E7
:100A2000042B0BD0082B11D0002B17D10021002054
:100A3000FFF764FC3148FFF789FD0FE0002100203B
:100A4000FFF75CFC2E48FFF781FD07E00021002046
:100A5000FFF754FC2B48FFF779FD00BF0121002070
:100A6000FFF74CFC2848FFF771FD284B5B68284ACC
:100A7000A2FB03239B0C1846FFF774FD2548FFF7E4
:100A800065FD40F2DC5001F0B5F9FB79002B03D194
:100A900000F036FD0346FB71FB79022B0BD0032BD4
:100AA0000ED0012B11D1094B1B78184600F02AFEFD
:100AB0000023FB7109E000F04DFE0023FB7104E010
:100AC00000F06CFE0023FB7100BFDEE74C0B002042
:100AD0006C04002044070020E40D002040040020A6
:100AE00044040020FE0D002046070020EC030020F7
:100AF000541E0008641E00086D040020701E0008CB
:100B0000801E0008901E0008A41E00084807002050
:100B100083DE1B43B01E000880B500AF00F0E8F88C
:100B20004FF4803000F012F900F03EF903461A4607
:100B3000294B1A70284B1B78012B2AD1802000F0FA
:100B4000B3F94FF4806000F0CBF94FF4E06000F0AF
:100B5000E3F94FF4004000F0FBF94FF4E0114FF4DB
:100B6000803000F049F9012000F064F900BF39201D
:100B700000F0E8FA0346002BF9D0022000F06AF9F1
:100B800000BF00F083F90346082BFAD1012000F0E2
:100B9000C9FA124800F0F8F9104B5B68104AA2FB42
:100BA00003239B091846FFF7C9FE0121042000F02A
:100BB0009BFA0121082000F097FA0121102000F093
:100BC00093FA0121202000F08FFA01214FF40070E8
:100BD00000F08AFA00BF80BD4507002048070020CA
:100BE000D34D621080B582B000AF4FF46043BB803C
:100BF0002823FB710123BB713B1D19460348FFF7F6
:100C000081FD00BF0837BD4680BD00BF0010014018
:100C100080B586B000AFFFF7A7FB00210020FFF7EB
:100C20006DFB2548FFF792FC4FF4FA7001F0E2F8F3
:100C30000123BB820023FB750323BB7507F114035B
:100C400019461E48FFF75EFD3B46184600F006FBBE
:100C500000233B6000233B7101237B714FF4602331
:100C6000BB600023FB600B233B743B4619461448D2
:100C700000F0A2FA0121124800F00CFB002301222F
:100C800000210F4800F072FB0D4800F01FFB00BF71
:100C90000B4800F02BFB0346002BF9D1084800F06D
:100CA0003DFB00BF064800F049FB0346002BF9D18D
:100CB00000BF1837BD4680BDB41E000800080140C3
:100CC0000024014080B500AFFFF74EFB002100205B
:100CD000FFF714FB0548FFF739FC4FF4FA7001F0F9
:100CE00089F82720FFF7E8FD00BF80BDC01E00087F
:100CF00080B400AF134A134B1B6843F00103136029
:100D00001049104B5A68104B13404B600D4A0D4B65
:100D10001B6823F0847323F480331360094A094B62
:100D20001B6823F480231360064A064B5B6823F498
:100D3000FE035360034B4FF41F029A6000BFBD4691
:100D400080BC7047001002400000FFF880B483B000
:100D500000AF7860134A134B1B6823F48033136091
:100D6000104A104B1B6823F4802313607B68B3F593
:100D7000803F03D0B3F5802F07D00DE0094A094B1F
:100D80001B6843F48033136006E0064A054B1B687A
:100D900043F4A023136000BF00BF0C37BD4680BCE6
:100DA000704700BF0010024080B582B000AF002342
:100DB0003B600023FB710023BB71312000F0C2F9BE
:100DC0000346BB713B6801333B603B68B3F5A06FE2
:100DD00002D0BB79002BF0D0312000F0B3F90346EC
:100DE000002B02D00123FB7101E00023FB71FB7992
:100DF00018460837BD4680BD80B485B000AF786026
:100E000039600023FB600A4B5B68FB60FB6823F4DE
:100E10007C13FB607A683B681343FA681343FB60FA
:100E2000034AFB68536000BF1437BD4680BC70475F
:100E30000010024080B483B000AF0346FB71044A47
:100E4000FB79136000BF0C37BD4680BC704700BF04
:100E50006000424280B485B000AF78600023FB6040
:100E6000094B5B68FB60FB6823F00303FB60FA68D7
:100E70007B681343FB60044AFB68536000BF143770
:100E8000BD4680BC704700BF0010024080B400AF78
:100E9000044B5B68DBB203F00C03DBB21846BD46C3
:100EA00080BC70470010024080B485B000AF78600D
:100EB0000023FB60094B5B68FB60FB6823F0F003D9
:100EC000FB60FA687B681343FB60044AFB6853606D
:100ED00000BF1437BD4680BC704700BF0010024001
:100EE00080B485B000AF78600023FB60094B5B687D
:100EF000FB60FB6823F4E063FB60FA687B681343E4
:100F0000FB60044AFB68536000BF1437BD4680BCD9
:100F1000704700BF0010024080B485B000AF786019
:100F20000023FB60094B5B68FB60FB6823F46053A4
:100F3000FB607B68DB00FA681343FB60034AFB68D5
:100F4000536000BF1437BD4680BC7047001002409C
:100F500080B485B000AF78600023FB60094B5B680C
:100F6000FB60FB6823F44043FB60FA687B68134333
:100F7000FB60044AFB68536000BF1437BD4680BC69
:100F8000704700BF0010024080B487B000AF7860A7
:100F900000237B6100233B610023FB600023BB60D7
:100FA0004C4B5B6803F00C037B617B69042B07D01F
:100FB000082B09D0002B33D17B68474A1A6033E0F5
:100FC0007B68454A1A602FE0424B5B6803F470135C
:100FD0003B61404B5B6803F48033FB603B699B0CD7
:100FE00002333B61FB68002B06D13B693B4A02FBA5
:100FF00003F27B681A6017E0364B5B6803F400333A
:10100000002B06D03B69354A02FB03F27B681A606D
:101010000AE03B69304A02FB03F27B681A6003E096
:101020007B682D4A1A6000BF2A4B5B6803F0F0030F
:101030007B617B691B097B61294A7B6913441B78AF
:10104000DBB2BB607B681A68BB68DA407B685A60B9
:10105000204B5B6803F4E0637B617B691B0A7B6167
:101060001F4A7B6913441B78DBB2BB607B685A68FC
:10107000BB68DA407B689A60164B5B6803F4605388
:101080007B617B69DB0A7B61154A7B6913441B78B2
:10109000DBB2BB607B685A68BB68DA407B68DA60A9
:1010A0000C4B5B6803F440437B617B699B0B7B616A
:1010B0000C4A7B6913441B78DBB2BB607B68DA683F
:1010C000BB68B2FBF3F27B681A6100BF1C37BD46F8
:1010D00080BC70470010024000127A0000093D00F9
:1010E000000000201000002080B483B000AF7860C2
:1010F0000B46FB70FB78002B06D00949084B9A6918
:101100007B6813438B6106E00549054B9A697B6850
:10111000DB4313408B6100BF0C37BD4680BC70477A
:101120000010024080B483B000AF0346FB71044A54
:10113000FB79136000BF0C37BD4680BC704700BF11
:101140004C00424280B487B000AF0346FB710023DD
:10115000FB6000237B610023FB74FB795B09DBB23E
:10116000FB60FB68012B03D1124B1B687B6109E01C
:10117000FB68022B03D10F4B1B6A7B6102E00D4B16
:101180005B6A7B61FB7903F01F03FB607A69FB6894
:1011900022FA03F303F00103002B02D00123FB74B6
:1011A00001E00023FB74FB7C18461C37BD4680BC65
:1011B000704700BF0010024080B485B000AF786077
:1011C00039600023FB600023FB727B685B68FB6077
:1011D000FB6823F4702323F48073FB603B681A6878
:1011E0003B681B791B021343FA681343FB607B685F
:1011F000FA685A607B689B68FB60FA68164B13407C
:10120000FB603B68DA683B689B681A433B685B7924
:101210005B001343FA681343FB607B68FA689A60CB
:101220007B68DB6AFB60FB6823F47003FB603B6850
:101230001B7C013BDAB2FB7A1343FB72FB7A1B0582
:10124000FA681343FB607B68FA68DA6200BF143700
:10125000BD4680BC704700BFFDF7F1FF80B483B08E
:1012600000AF78607B6800221A607B6800221A71E8
:101270007B6800225A717B6800229A607B6800229A
:10128000DA607B6801221A7400BF0C37BD4680BC4F
:10129000704700BF80B483B000AF78600B46FB702E
:1012A000FB78002B06D07B689B6843F001027B68CB
:1012B0009A6005E07B689B6823F001027B689A6076
:1012C00000BF0C37BD4680BC704700BF80B483B000
:1012D00000AF78607B689B6843F008027B689A6087
:1012E00000BF0C37BD4680BC704700BF80B485B0DE
:1012F00000AF78600023FB737B689B6803F00803F2
:10130000002B02D00123FB7301E00023FB73FB7B66
:1013100018461437BD4680BC704700BF80B483B008
:1013200000AF78607B689B6843F004027B689A603A
:1013300000BF0C37BD4680BC704700BF80B485B08D
:1013400000AF78600023FB737B689B6803F00403A5
:10135000002B02D00123FB7301E00023FB73FB7B16
:1013600018461437BD4680BC704700BF80B485B0B6
:1013700000AF7860084611461A460346FB700B46DC
:10138000BB7013467B700023FB600023BB60FB78BF
:10139000092B23D97B68DB68FB60FB78A3F10A0289
:1013A00013465B001344072202FA03F3BB60BB68D9
:1013B000DB43FA681340FB607978FB78A3F10A02FB
:1013C00013465B00134401FA03F3BB60FA68BB6881
:1013D0001343FB607B68FA68DA601EE07B681B6978
:1013E000FB60FA7813465B001344072202FA03F30A
:1013F000BB60BB68DB43FA681340FB607978FA781E
:1014000013465B00134401FA03F3BB60FA68BB6840
:101410001343FB607B68FA681A61BB78062B21D8FE
:101420007B685B6BFB60BB785A1E13469B001344C2
:101430001F2202FA03F3BB60BB68DB43FA68134068
:10144000FB60F978BB785A1E13469B00134401FADF
:1014500003F3BB60FA68BB681343FB607B68FA6800
:101460005A6347E0BB780C2B21D87B681B6BFB6071
:10147000BB78DA1F13469B0013441F2202FA03F3C2
:10148000BB60BB68DB43FA681340FB60F978BB784C
:10149000DA1F13469B00134401FA03F3BB60FA689A
:1014A000BB681343FB607B68FA681A6322E07B68C1
:1014B000DB6AFB60BB78A3F10D0213469B0013446B
:1014C0001F2202FA03F3BB60BB68DB43FA681340D8
:1014D000FB60F978BB78A3F10D0213469B0013441F
:1014E00001FA03F3BB60FA68BB681343FB607B68D7
:1014F000FA68DA6200BF1437BD4680BC704700BF8F
:1015000080B582B000AF0023FB710023BB710023C4
:101510007B7100233B71FEF727FF00210020FEF7BF
:10152000EDFE7148FFF712F801210020FEF7E6FEFC
:101530006E48FFF70BF8CDE07B79032B00F2C580F6
:1015400001A252F823F000BF5915000881150008C8
:10155000EF1500085D16000800BF4FF40051644805
:10156000FFF78CF90346BB71BB79002BF5D0012343
:101570007B710023BB714FF4C87000F03BFCA4E00A
:10158000FEF7F2FE00210020FEF7B8FE5948FEF7F4
:10159000DDFF01210020FEF7B1FE5748FEF7D6FF20
:1015A00010E04FF400415248FFF768F903463B71E1
:1015B0004FF400514E48FFF761F90346BB71962086
:1015C00000F018FCBB79002B02D13B79002BE8D04E
:1015D000BB79012B01D102237B713B79012B01D116
:1015E0000123FB7100233B710023BB716DE0FEF70B
:1015F000BBFE00210020FEF781FE4048FEF7A6FF5B
:1016000001210020FEF77AFE3B48FEF79FFF10E025
:101610004FF400413648FFF731F903463B714FF470
:1016200000513348FFF72AF90346BB71962000F0BA
:10163000E1FBBB79002B02D13B79002BE8D0BB79D1
:10164000012B01D103237B713B79012B01D10223B3
:10165000FB7100233B710023BB7136E0FEF784FE73
:1016600000210020FEF74AFE2548FEF76FFF01210A
:101670000020FEF743FE2048FEF768FF10E04FF41D
:1016800000411B48FFF7FAF803463B714FF4005145
:101690001748FFF7F3F80346BB71962000F0AAFB4A
:1016A000BB79002B02D13B79002BE8D0BB79012B11
:1016B00001D100237B713B79012B01D10323FB7105
:1016C00000233B710023BB7100BFFB79002B01D0CD
:1016D000FB7904E0FB79002B3FF42EAF0123184681
:1016E0000837BD4680BD00BFCC1E0008E01E0008C4
:1016F00000100140F41E0008FC1E00080C1F00082A
:10170000181F000880B582B000AF0346FB71FEF7DA
:101710002BFE00210020FEF7F1FD0B48FEF716FF1F
:1017200001210020FEF7EAFD0848FEF70FFF00BF89
:101730004FF480410648FFF7A1F80346002BF7D08D
:1017400000BF0837BD4680BD201F0008281F0008C5
:101750000010014080B500AFFEF706FE002100201A
:10176000FEF7CCFD0A48FEF7F1FE01210020FEF74E
:10177000C5FD0848FEF7EAFE00BF4FF48041064869
:10178000FFF77CF80346002BF7D000BF80BD00BFF9
:10179000301F0008281F00080010014080B582B0EB
:1017A00000AF0023FB710023BB7100237B71FEF7A8
:1017B000DBFD00210020FEF7A1FDAD48FEF7C6FECF
:1017C00001210020FEF79AFDAA48FEF7BFFECFE2F6
:1017D0000023FB710023BB7148E0FEF7C5FD00212B
:1017E0000020FEF78BFDA448FEF7B0FE012100208B
:1017F000FEF784FDBB79012B0AD1A04B1B78002B8F
:1018000003D19E4B01221A7002E09C4B00221A70F9
:101810009A4B1B78002B03D19948FEF797FE02E004
:101820009848FEF793FE4FF400419748FFF726F8DB
:101830000346BB714FF400519348FFF71FF803466E
:10184000FB714FF480419048FFF718F803467B7115
:10185000FB79012B06D0BB79012B03D07B79012BBF
:1018600000D0E0E74FF4FA7000F0C4FAFB79002BE7
:1018700002D17B79002BB0D00023FB710023BB7118
:1018800043E0FEF771FD00210020FEF737FD7F48A1
:10189000FEF75CFE01210020FEF730FDBB79012B35
:1018A00005D17B4B1B78DB43DAB2794B1A70784B4E
:1018B0001B78002B03D17748FEF748FE02E07648FC
:1018C000FEF744FE4FF400416F48FEF7D7FF034692
:1018D000BB714FF400516C48FEF7D0FF0346FB711B
:1018E0004FF480416848FEF7C9FF03467B71FB79DE
:1018F000012B06D0BB79012B03D07B79012B00D0C3
:10190000E0E74FF4967000F075FAFB79002B02D1F6
:101910007B79002BB5D00023FB710023BB7148E01D
:10192000FEF722FD00210020FEF7E8FC5B48FEF7F1
:101930000DFE01210020FEF7E1FCBB79012B09D14E
:10194000574B1B780133DAB2554B1A70544B1A7847
:10195000534B1A70524B1B78122B02D1504B002262
:101960001A704F4B1B781846FEF7FCFD4FF40041F0
:101970004548FEF783FF0346BB714FF400514248D0
:10198000FEF77CFF0346FB714FF480413E48FEF7B3
:1019900075FF03467B71FB79012B06D0BB79012BC8
:1019A00003D07B79012B00D0E0E74FF4967000F074
:1019B00021FAFB79002B02D17B79002BB0D00023D8
:1019C000FB710023BB7148E0FEF7CEFC0021002034
:1019D000FEF794FC3348FEF7B9FD01210020FEF725
:1019E0008DFCBB79012B09D12F4B1B780133DAB267
:1019F0002D4B1A702C4B1A782B4B1A702A4B1B78D4
:101A0000122B02D1284B00221A70274B1B78184644
:101A1000FEF7A8FD4FF400411B48FEF72FFF0346D9
:101A2000BB714FF400511848FEF728FF0346FB71C5
:101A30004FF480411448FEF721FF03467B71FB7988
:101A4000012B06D0BB79012B03D07B79012B00D071
:101A5000E0E74FF4967000F0CDF9FB79002B02D14E
:101A60007B79002BB0D00023FB710023BB7166E0B3
:101A70003C1F0008441F0008581F00084C0B0020A2
:101A80006C1F0008801F0008001001408C1F000818
:101A90006C040020A41F0008B01F0008B81F000835
:101AA00044070020C81F0008E40D0020FEF75CFC7E
:101AB00000210020FEF722FC9D48FEF747FD012192
:101AC0000020FEF71BFCBB79012B09D1994B1B7839
:101AD0000133DAB2974B1A70964B1A78954B1A70FD
:101AE000944B1B78122B02D1924B00221A70914B0F
:101AF0001B781846FEF736FD4FF400418E48FEF77E
:101B0000BDFE0346BB714FF400518B48FEF7B6FE95
:101B10000346FB714FF480418748FEF7AFFE034652
:101B20007B71FB79012B06D0BB79012B03D07B792C
:101B3000012B00D0E0E74FF4967000F05BF9FB79E1
:101B4000002B02D17B79002BB0D00023FB71002346
:101B5000BB7145E0FEF708FC00210020FEF7CEFB3C
:101B60007648FEF7F3FC01210020FEF7C7FBBB79A6
:101B7000012B05D1724B1B8832339AB2704B1A80FD
:101B80006F4B1B88B3F5FA6F02D16D4B00221A80A0
:101B90006B4B1B881846FEF7E5FC4FF40041664886
:101BA000FEF76CFE0346BB714FF400516248FEF72E
:101BB00065FE0346FB714FF480415F48FEF75EFE11
:101BC00003467B71FB79012B06D0BB79012B03D037
:101BD0007B79012B00D0E0E74FF4967000F00AF912
:101BE000FB79002B02D17B79002BB3D00023FB7152
:101BF0000023BB7148E0FEF7B7FB00210020FEF791
:101C00007DFB5048FEF7A2FC01210020FEF776FB89
:101C1000BB79012B09D14C4B1B780133DAB24A4B0B
:101C20001A70494B1A78484B1A70424B1B78032B99
:101C300002D1454B00221A70434B1B781846FEF721
:101C400091FC4FF400413C48FEF718FE0346BB717F
:101C50004FF400513848FEF711FE0346FB714FF474
:101C600080413548FEF70AFE03467B71FB79012B64
:101C700006D0BB79012B03D07B79012B00D0E0E7A4
:101C80004FF4967000F0B6F8FB79002B02D17B7907
:101C9000002BB0D00023FB710023BB7162E0FEF784
:101CA00063FB00210020FEF729FB2848FEF74EFCCD
:101CB00001210020FEF722FBBB79012B0ED1244B22
:101CC0001B78002B03D1224B01221A7006E0204B17
:101CD0001B78012B02D11E4B00221A701C4B1B7863
:101CE000002B03D11B48FEF731FC02E01A48FEF737
:101CF0002DFC4FF400411048FEF7C0FD0346BB71B8
:101D00004FF400510C48FEF7B9FD0346FB714FF448
:101D100080410948FEF7B2FD03467B71FB79012B38
:101D20001CD0BB79012B19D07B79012B16D0E0E7B1
:101D3000D81F00084004002000100140EC1F0008DC
:101D400044040020FC1F0008FE0D00200C200008A9
:101D5000EC03002020200008282000084FF4967093
:101D600000F048F8FB79002B02D17B79002B96D04C
:101D70007B79002B3FF42CAD104B1A78104B1A7066
:101D8000104B1A780E4B5A700F4B1A780C4B9A70F6
:101D90000E4B1A780A4BDA700D4B1A78084B1A71F1
:101DA0000C4B1B88DAB2064B5A710A4B1B88DAB20D
:101DB000034B9A7100BF0837BD4680BD4C0B002015
:101DC000480400206C04002044070020E40D00209B
:101DD000400400204404002080B400AF044B1B6882
:101DE0000133034A136000BFBD4680BC704700BF8B
:101DF0001400002080B483B000AF7860094B00224B
:101E00009A60094B00221A6000BF7B68A3F10A02A6
:101E1000054B1B689A42F8D800BF0C37BD4680BC02
:101E2000704700BF10E000E0140000204572726FA0
:101E30007220657863657074696F6E7300000000CE
:101E400044656661756C745F48616E646C6572218F
:101E50000000000050726F67426F7820762E352E9A
:101E60003000000031382E30362E3230313700004D
:101E70004853495F436C6F636B5F75736500000087
:101E80004853455F436C6F636B5F7573650000007B
:101E9000504C4C20636C6F636B20736F757263657D
:101EA00000000000434C4B5F56414C203D20000099
:101EB0004D487A00436F6E666967204144430000D5
:101EC000436F6E666967204E564943005345545F21
:101ED000494E544552464552454E43450000000088
:101EE00050555348204341502055502F444F574E92
:101EF000000000004A414D4D4552530053455420C7
:101F00002D3E20454E5445520000000042524F41A4
:101F10004442414E530000004F5054494F4E53002D
:101F20004A414D4D45525300574F524B000000005F
:101F300042524F414442414E530000004F505449D9
:101F40004F4E530050555348204341502055502F79
:101F5000444F574E00000000526570657469746903
:101F60006F6E735F4F50454E0000000053746174F4
:101F7000653A696E66696E6974656C790000000087
:101F800053746174653A4F6E636500006D617472DD
:101F900069785F666F725F76616C69646174696F9E
:101FA0006E000000696E66696E6974656C79000088
:101FB0004F6E636500000000534C435F6E756D62A9
:101FC00065725F434800000050494E5F4E554C4CCF
:101FD0005F535749544348004E554D425F42495460
:101FE000535F535749544348000000006164635FE6
:101FF0006C6576656C5F6164640000007365745F96
:102000006F7074696F6E5F70757368007479706556
:102010005F746573745F7369676E616C00000000C4
:0F2020006469676974000000616E616C6F67002E
:10202F00000000000102030401020304060708096F
:04203F000204060889
:0400000508000000EF
:00000001FF
